:020000040800F2
:1000000000100020152200088B0900088D09000847
:1000100000000000000000000000000000000000E0
:100020000000000000000000000000008F09000830
:10003000000000000000000091090008930900087A
:100040006522000800000000652200086522000803
:100050006522000865220008652200086522000864
:1000600000000000652200086522000865220008E3
:1000700065220008652200086522000800000000D3
:100080006522000800000000000000006522000852
:1000900000000000652200086522000865220008B3
:1000A0000000000065220008000000006522000832
:1000B0000000000000000000000000000000000040
:1000C00010B5064C2378002B07D1054B002B02D02E
:1000D000044800E000BF0123237010BD0C00002085
:1000E00000000000D4220008044B10B5002B03D000
:1000F0000349044800E000BF10BDC04600000000F6
:1001000010000020D4220008002243088B4274D340
:1001100003098B425FD3030A8B4244D3030B8B4208
:1001200028D3030C8B420DD3FF22090212BA030C11
:100130008B4202D31212090265D0030B8B4219D3F2
:1001400000E0090AC30B8B4201D3CB03C01A524112
:10015000830B8B4201D38B03C01A5241430B8B425A
:1001600001D34B03C01A5241030B8B4201D30B0343
:10017000C01A5241C30A8B4201D3CB02C01A52416A
:10018000830A8B4201D38B02C01A5241430A8B422D
:1001900001D34B02C01A5241030A8B4201D30B0216
:1001A000C01A5241CDD2C3098B4201D3CB01C01A30
:1001B000524183098B4201D38B01C01A524143093A
:1001C0008B4201D34B01C01A524103098B4201D328
:1001D0000B01C01A5241C3088B4201D3CB00C01A95
:1001E000524183088B4201D38B00C01A524143080D
:1001F0008B4201D34B00C01A5241411A00D2014632
:10020000524110467047FFE701B5002000F006F8A4
:1002100002BDC0460029F7D076E770477047C04658
:1002200070B588B01422002103A802F04AF8184BD8
:10023000596980208002014359615A690240019244
:10024000019A5A698021C9020A435A615B690B40CD
:100250000293029B802676009025ED050022310056
:10026000280001F0F0F80B4B03930024049405944C
:1002700003A9280001F01AF80396012304930594BA
:10028000069403A9280001F011F808B070BDC0461B
:10029000001002400C94000072B6FEE710B5124840
:1002A000124B0360124B4360002383600122C26043
:1002B000036143618361C361036201F06BFA00284B
:1002C0000CD10021084801F09FFB002808D1002133
:1002D000054801F0C5FB002804D110BDFFF7DCFF85
:1002E000FFF7DAFFFFF7D8FF280000200054004096
:1002F0002B1D200000B597B01022002112A801F09C
:10030000E0FF0822002110A801F0DBFF1C220021E1
:1003100009A801F0D6FF2022002101A801F0D1FF99
:100320002B482C4B03600023436083602A4AC26041
:1003300003614361836101F0E9FC00283CD1802323
:100340005B01129312A9224801F0FCFD002835D16F
:100350001F4801F007FD002832D1002310931193AC
:1003600010A91B4801F0F2FE00282BD1602309934D
:100370009533FF330A9300230B930D930E930F9342
:100380000C2209A9124801F059FD00281CD10023B4
:1003900001930293039304930593802292010692A2
:1003A000089301A90A4801F0FFFE00280ED1084871
:1003B00000F056FB17B000BDFFF76EFFFFF76CFFB4
:1003C000FFF76AFFFFF768FFFFF766FFFFF764FFBD
:1003D0007C000020002C0140E703000000B595B030
:1003E0003022002108A801F06CFF1022002104A88F
:1003F00001F067FF10220021684601F062FF02232E
:100400000893013B0B930F330C9308A800F0AEFB4D
:10041000002816D10723049300230593069307931E
:10042000002104A800F01AFE00280CD1202300931C
:1004300000230393684600F0ABFE002805D115B0F9
:1004400000BDFFF729FFFFF727FFFFF725FF00009B
:10045000F0B583B000F056FBFFF7C0FFFFF7E0FEFA
:10046000FFF71CFFFFF746FF0C213E4801F0FCFDA3
:1004700000F0DEF83F237F220021002000F0AFF9DA
:10048000394A0021222000F05DFA384A0A2108206A
:1004900000F058FA364A0A21202000F053FA354A73
:1004A0000A21382000F04EFA334A0A21502000F089
:1004B00049FA324A0A21682000F044FA00F09CF818
:1004C0002BE03122282100F003FA0135042D1FDC36
:1004D00018246C43E4B227000E37FFB22200193211
:1004E000D2B2E01CC0B23423122100F023F96B46D3
:1004F0005E5D731E5A425341DBB205221A21380059
:1005000000F086F90B34E0B2012EDAD03022D9E7C0
:1005100000F072F8322000F017FB9024E40504216B
:10052000200000F089FF6B4618700821200000F0C1
:1005300083FF6B4658708021C900200000F07CFFCB
:100540006B46987080214901200000F075FF6B46D2
:10055000D87080210902200000F06EFF6B461871F0
:100560000025B3E77C000020EC220008F8220008F8
:10057000FC220008002300080423000808230008C8
:1005800000B585B000236A4613735073642300934B
:10059000623B03AA7821024801F06AF905B000BD68
:1005A0002800002030B583B003000C00094D402224
:1005B0002A70681C0A00190001F07AFE0134A3B207
:1005C000642200922A007821034801F051F903B017
:1005D00030BDC046C404002028000020002304E0F1
:1005E000044A0021D15401339BB28022D2009342AD
:1005F000F6D37047C400002010B5002412E020009C
:100600005038C0B2FFF7BCFF0220FFF7B9FF10203F
:10061000FFF7B6FFE001054BC0188021FFF7C2FFCE
:100620000134E4B2072CEAD910BDC046C400002052
:1006300070B580256D009024E4050022290020007B
:1006400000F001FF0A2000F07FFA012229002000BB
:1006500000F0F9FE0A2000F077FAAE20FFF790FFD5
:10066000A820FFF78DFF3F20FFF78AFFD320FFF779
:1006700087FF0020FFF784FF4020FFF781FFA020C5
:10068000FFF77EFFC820FFF77BFFDA20FFF778FF38
:100690001220FFF775FF8120FFF772FF7F20FFF721
:1006A0006FFFD520FFF76CFF8020FFF769FFD9208F
:1006B000FFF766FF2220FFF763FFDB20FFF760FFF5
:1006C0002020FFF75DFF8D20FFF75AFF1420FFF772
:1006D00057FF2020FFF754FF0220FFF751FFA6200D
:1006E000FFF74EFFAF20FFF74BFFFFF777FFFFF756
:1006F00083FF70BD10B543B2002B11DB3F290FD82B
:100700007F231B1AC80807242140C001DBB2C01890
:10071000002A06D001228A4005490B5C13430B5482
:1007200010BD01228A4002490B5C93430B54F7E74A
:10073000C4000020F0B583B007000E0001921D0038
:10074000904201D801901700AE4210D82B0035001E
:100750001E000CE0002229002000FFF7CBFF01342F
:10076000E4B2A74201D32306F4D50135EDB2AE427F
:1007700003D33F2D01D8019CF3E703B0F0BD70B562
:1007800005000C0016003F2A10D8884201D804004A
:100790000D00A5420AD363B2002B07DB0122310012
:1007A0002000FFF7A7FF0134E4B2F2E770BD70B597
:1007B00006000D00140043B2002B0FDB914209D854
:1007C0000C00150006E0012221003000FFF792FF27
:1007D0000134E4B2A54201D33F2CF4D970BDF8B581
:1007E00007000D0014001E000A002100FFF7C7FFDC
:1007F000320021003800FFF7C2FF32002900380024
:10080000FFF7D5FF320029002000FFF7D0FFF8BD29
:10081000F0B5DE4657464E464546E0B583B0151E58
:1008200098460AD083B29A46831A01938BB29946AE
:100830008E1A87188B46934445E00122FFF75AFF32
:1008400003B0F0BCBB46B246A946A046F0BD6A1E46
:100850006A430132691C6943934209D38B4207D82A
:10086000002805DB7F2803DC002E01DB3F2E22DD84
:10087000013420B2B84224DC84B25346E21A12B2E8
:100880004B46F31A1BB252435B43D3182A006A4308
:1008900041460029DBD09342EAD80028E8DB7F28D4
:1008A000E6DC002EE4DB3F2EE2DCF1B2C0B2012236
:1008B000FFF720FFDCE7F1B2C0B20122FFF71AFF19
:1008C000D6E7013636B25E45BADC0198D2E70000C1
:1008D000F8B5CE46474680B507000E001300203B12
:1008E000DBB23A2B00D92022203A53009A1852004A
:1008F000134B91469944002516E00134E4B2072CCD
:1009000010D833193F2BF8DC7B197F2BF5DC4346DD
:10091000234101221A40A119C9B2E819C0B2FFF758
:10092000E9FEEAE70135EDB2052D04D84B465B5DE3
:1009300098460024E3E7C0BCB946B046F8BDC046BF
:100940000C230008F8B506000D0017000FE0611930
:10095000C9B2B01DC0B20022FFF7CCFE0134E4B230
:10096000072C02D82B193F2BF1DD0736F6B23A7867
:10097000002A09D073B2002B06DB013729003000B2
:10098000FFF7A6FF0024EBE7F8BDFEE7FEE77047A0
:10099000704710B500F0C6F810BD000082B00A4BD9
:1009A000996901221143996199690A400092009A5C
:1009B000DA69802149050A43DA61DB690B4001935A
:1009C000019B02B07047C0460010024010B588B0CD
:1009D00004001422002103A801F073FC2268124BCA
:1009E0009A4201D008B010BD104C62698021C90242
:1009F0000A43626163690B400193019BC023039327
:100A0000AE3B04930F3B0693023B079303A90848B0
:100A100000F04CFCE269802189030A43E261E3694A
:100A20000B400293029BDDE700540040001002409F
:100A30000004004882B00268074B9A4201D002B01D
:100A40007047064A916980200001014391619369D2
:100A500003400193019BF2E7002C0140001002408B
:100A600010B586B004001422002101A801F029FC71
:100A700022680D4B9A4201D006B010BD0B4A516955
:100A80008020800201435161536903400093009B21
:100A900080231B010193022302930593902001A957
:100AA000C00500F003FCE7E7002C01400010024005
:100AB0007047000010B504000F4B1978FA20800031
:100AC000FFF722FB01000D4B1868FFF71DFB00F03C
:100AD000F1FC00280DD1032C01D901200AE00130DE
:100AE00000222100404200F0B5FC054B1C600020B4
:100AF00000E0012010BDC0460400002000000020DE
:100B00000800002010B5064A136810210B4313603B
:100B10000320FFF7CFFFFFF741FF002010BDC046C5
:100B200000200240034A1168034B1B785B181360D6
:100B30007047C0464805002004000020014B18689B
:100B40007047C0464805002070B50400FFF7F6FF67
:100B50000500631C02D0044B1B78E418FFF7EEFF7E
:100B6000401BA042FAD370BD0400002070B582B0D3
:100B7000041E00D12EE20368DB0726D5AE4B5A686F
:100B80000C231340042B18D0AB4B5A680C23134092
:100B9000082B0ED06368012B3CD0002B51D1A64B03
:100BA0001A68A6490A401A601A68A5490A401A60DC
:100BB00036E0A14B5B68DB03ECD59F4B1B689B03C6
:100BC00003D56368002B00D107E223689B0772D529
:100BD000994B5B680C221A425DD0974B5A680C23E4
:100BE0001340082B53D0E368002B00D185E0924AD4
:100BF000136801210B431360FFF7A0FF05008E4B24
:100C00001B689B0770D4FFF799FF401B0228F6D999
:100C10000320E0E1884A116880235B020B431360E4
:100C20006368002B25D0FFF789FF0500824B1B6806
:100C30009B03CAD4FFF782FF401B6428F6D9032028
:100C4000C9E1052B09D07C4B1A687C490A401A601F
:100C50001A687B490A401A60E2E7774B19688022DC
:100C6000D2020A431A601968802252020A431A60AB
:100C7000D6E7FFF763FF05006F4B1B689B03A4D506
:100C8000FFF75CFF401B6428F6D90320A3E16A4B01
:100C90005B68DB03A7D4684B1B689B0703D5E3683D
:100CA000012B00D09BE164490B68F8229343226931
:100CB000D20013430B6023681B0744D5E369002B64
:100CC0002ED05D4A536A01210B435362FFF736FF72
:100CD0000500594B5B6A9B0735D4FFF72FFF401B7C
:100CE0000228F6D9032076E153490B68F822934392
:100CF0002269D20013430B60DDE74F4A13680121DC
:100D00008B431360FFF71AFF05004B4B1B689B07D3
:100D1000D1D5FFF713FF401B0228F6D903205AE173
:100D2000454A536A01218B435362FFF707FF0500D1
:100D3000414B5B6A9B0706D5FFF700FF401B02286B
:100D4000F6D9032047E123685B0700D480E03A4BE3
:100D5000DB69DB001DD4384AD1698020400501439E
:100D6000D161D36903400193019B0125354B1B6879
:100D7000DB0510D5A368012B21D0002B36D12E4BDB
:100D80001A6A01218A431A621A6A03318A431A6273
:100D90001AE00025EAE72B4A116880235B000B4329
:100DA0001360FFF7CBFE0600264B1B68DB05E1D482
:100DB000FFF7C4FE801B6428F6D903200BE11E4A0E
:100DC000136A01210B431362A368002B24D0FFF7A1
:100DD000B5FE0600184B1B6A9B0737D4FFF7AEFE23
:100DE000801B194B9842F5D90320F4E0052B09D05C
:100DF000114B1A6A01218A431A621A6A03318A4323
:100E00001A62E1E70C4B1A6A04210A431A621A6A51
:100E100003390A431A62D7E7FFF790FE0600064B34
:100E20001B6A9B0712D5FFF789FE801B064B984271
:100E3000F5D90320CFE0C04600100240FFFFFEFFBF
:100E4000FFFFFBFF0070004088130000012D33D02E
:100E50002368DB0610D56369012B33D0053351D1EC
:100E6000654A536B04218B435363536BF4318B43BB
:100E7000A169C9000B435363236A002B00D1B0E082
:100E80005D4A51680C220A40082A00D18AE0022BF0
:100E90004FD0594A136859490B401360FFF74EFE73
:100EA0000400554B1B689B017AD5FFF747FE001BDA
:100EB0000228F6D903208EE04F4AD36950490B40EF
:100EC000D361C5E74C4B5A6B04210A435A635A6BF2
:100ED00003390A435A63FFF731FE0500464B5B6B4B
:100EE0009B0706D4FFF72AFE401B0228F6D90320F1
:100EF00071E041494B6BF8229343A269D20013433E
:100F00004B63B9E73C4B5A6B04210A435A635A6B53
:100F100003398A435A63FFF711FE0500364B5B6BBA
:100F20009B07A9D5FFF70AFE401B0228F6D903202C
:100F300051E0314A136831490B401360FFF7FEFD61
:100F400005002D4B1B689B0106D5FFF7F7FD401BE5
:100F50000228F6D903203EE0274BDA6A0F218A43A4
:100F6000E16A0A43DA625A6826490A40A16A606A5D
:100F700001430A435A601968802252040A431A60E6
:100F8000FFF7DCFD04001C4B1B689B0106D4FFF738
:100F9000D5FD001B0228F6D903201CE000201AE032
:100FA000002018E0012B1ED0134B5A68D96A802309
:100FB0005B021340606A834217D10F230B40E16A42
:100FC0008B4214D1F0239B031A40A36A9A4210D19A
:100FD000002000E0012002B070BD0120FBE70120ED
:100FE000F9E70020F7E70120F5E70120F3E701200A
:100FF000F1E70120EFE7C04600100240FFFFFFFECF
:10100000FFFFFFEFFFFFC2FF10B5104B5A680C2324
:101010001340082B01D00E4810BD910C0733194026
:101020000C48445C0949C96A0B400B49C95CD303AD
:1010300004D50748FFF768F86043EDE763011B1B21
:101040009801C01AC00000190002E5E70010024034
:1010500000127A00802400089024000870B5040073
:101060000D00002800D17EE0434B1A680123134095
:101070008B420AD240490B68012293432B430B60F9
:101080000B681A40AA4200D06FE023689A070ED579
:101090005B0705D5394A5168E023DB000B435360F9
:1010A000364A5368F0218B43A1680B435360236891
:1010B000DB072DD56368012B1ED0022B22D02F4ACF
:1010C0001268920753D52D494A680320824313437F
:1010D0004B60FFF733FD0600284B5B680C221A407B
:1010E00063689B009A4213D0FFF728FD801B244BB6
:1010F0009842F1D9032035E0204A12689203E2D4E5
:1011000001202FE01D4A12689201DCD4012029E061
:10111000194B1A6801231340AB4209D916490B68D1
:10112000012293432B430B600B681A40AA4220D143
:1011300023685B0706D5114A536812490B40E168E2
:101140000B435360FFF760FF0C4B5A6812090F23E3
:1011500013400D4AD35CD8400C4B18600320FFF7B6
:10116000A9FC002070BD0120FCE70120FAE7012066
:10117000F8E70120F6E7C0460020024000100240D8
:1011800088130000FFF8FFFF702400080000002013
:1011900070B582B004000368DB0337D53D4BDB69D3
:1011A000DB0049D43B4AD169802040050143D1612D
:1011B000D36903400193019B0125374B1B68DB0575
:1011C0003CD5344B1A6AC0239B00110019401A42C7
:1011D00013D0626813408B420FD02E4B186A2F4AEF
:1011E00002401E6A8021490231431962196A2C4E5D
:1011F000314019621A62C30734D4264A136A274958
:101200000B4061680B431362012D3AD02368DB0762
:1012100006D5204A136B03218B43A1680B4313634C
:1012200023689B0632D51B4A136B10218B43E16860
:101230000B43136300202AE00025BEE7164A11681D
:1012400080235B000B431360FFF778FC0600124B12
:101250001B68DB05B5D4FFF771FC801B6428F6D949
:10126000032014E0FFF76AFC06000A4B1B6A9B0789
:10127000C3D4FFF763FC801B0A4B9842F5D90320C7
:1012800005E0D36908490B40D361BFE7002002B0F5
:1012900070BDC0460010024000700040FFFCFFFF20
:1012A000FFFFFEFF88130000FFFFFFEFF0B583B0E4
:1012B000002357E084685F000326BE40B443260045
:1012C000CC68BC4034438460446894434A6816093F
:1012D000012232409A402243426053E0DC08083445
:1012E000A400265805321A4092000F279740BE43AB
:1012F0000F6997403A003243225057E0032600E03E
:101300000026A64034003C4302329200444E9451E1
:10131000444A9468EA432600AE434F68FF0201D571
:101320002C4326003F4CA660E468260016404F6818
:10133000BF0201D52C4326003A4CE66064682600C3
:1013400016404F68BF0301D52C432600354C66601C
:10135000246822404E68F60301D52A002243314C0E
:10136000226001330C682200DA4057D001229A40F3
:10137000250015401442F4D003244E683440013C4B
:10138000012C97D903224C682240032A09D0C26855
:101390005E000324B440A24314008A68B240224392
:1013A000C26003224C682240022A97D004685E0083
:1013B00003221700B740BC434F683A40B240224373
:1013C0000260C02292024C681442CAD0164CA66930
:1013D00001221643A661A46922400192019A9A084B
:1013E000941CA4000E4EA75903241C40A4000F26F1
:1013F000A640B7439026F605B04281D00B4EB042CE
:1014000008D00B4EB04207D00A4EB04200D175E76B
:10141000052676E7012674E7022672E703B0F0BDE1
:101420000000014000040140001002400004004898
:1014300000080048000C004803690B4201D001205D
:1014400070470020FCE7002A01D08161704781626B
:10145000FCE7000070B5002811DB8308134EC03391
:101460009B009D5903242040C000FF2214008440AB
:10147000A54389010A4082402A439A5170BD0F2337
:101480000340083B9B0806339B00094A944663448B
:101490005C6803221040C000FC3215008540AC435C
:1014A00089010A40824022435A60E7E700E100E0F8
:1014B00000ED00E0013880235B0498420FD2094A16
:1014C00050600948036A1B021B0AC02109060B432E
:1014D00003620023936007331360002070470120EC
:1014E000FCE7C04610E000E000ED00E003689A6908
:1014F000920701D500229A6203689A69D20703D441
:101500009A6901210A439A617047000010B5890564
:10151000890D120411431943029B194349004908DC
:10152000046862685B0D8020C000034002480343EA
:101530009A431143616010BDFF63FF03F0B5C646D7
:1015400000B504000D00170001688B691022160019
:101550001E401A4200D175E01023CB61002398464B
:10156000002623689869820631D4002E2FD16B1C87
:10157000F7D0FFF7E3FAC01BA84201D8002DF0D145
:1015800021684B688022D20113404222A25CD2B271
:101590008869000403D5002B01D1202A0ED12368CD
:1015A0009B699B06DDD4FFF7C9FAC01B1928F6D941
:1015B000202342461A4390460126D2E74A688023F8
:1015C000DB0113434B60FFF7B9FA0700E7E7002E92
:1015D00001D12022DA610426434633431E0001254F
:1015E00022689369D90504D501210E43FF31D161E9
:1015F00001255A0506D50822164322688021C90014
:10160000D16101259B051FD502231E43236880223B
:101610009200DA6101252000FFF768FF2268536815
:101620000B490B405360636C1E43666441232022C8
:10163000E25400232232A354023AA354280080BC6F
:10164000B846F0BD0025CBE7002DF7D0E3E7C04654
:1016500000E800FE70B504000D00160023689B69C9
:101660009B0720D4320029002000FFF767FF0028E5
:101670001BD16B1CF2D0FFF761FA801BA84201D886
:10168000002DEBD123689B699B07E7D4636C202274
:10169000134363644123E25400232232A354023AE9
:1016A000A354012000E0002070BD0120FCE7F0B54C
:1016B000D6464F4680B583B007000D001600994608
:1016C0000A9B9A463B689C692C40641B63425C41C0
:1016D0000196B44228D1524649463800FFF72EFF02
:1016E000002827D14B460133ECD0FFF727FA5346A9
:1016F000C01A484502D84B46002BE3D13B689B6992
:101700002B405B1B5A425341019A9342DAD17B6CC6
:10171000202213437B644123FA5400232232BB541A
:10172000023ABB54012000E0002003B0C0BCBA461E
:10173000B146F0BD0120F8E770B504000D001600B9
:1017400003E023689B699B0612D523689B699B066F
:101750001BD4320029002000FFF7F0FE002816D12C
:10176000FFF7ECF9801BA842EBD8002DEDD1E8E79C
:10177000636C2022134363644123E254002322322A
:10178000A354023AA354012000E0002070BD0120C0
:10179000FCE7000010B5041E60D04123C35C002BA1
:1017A00048D041232422E2542268136801218B434C
:1017B000136022682A4B61680B40136122689368AA
:1017C00028490B409360E368012B39D022688423B9
:1017D0001B02A1680B439360E368022B37D0226899
:1017E000536821490B405360226851681F4B0B43DB
:1017F00053602268D3681B490B40D3602369626938
:101800001343A269120221681343CB602268E36983
:10181000216A0B4313602268136801210B43136094
:101820000023636441221F31A15423630132A35476
:10183000002010BD40330022C254FFF7C7F8B0E7C4
:10184000226880231B02A1680B439360C4E72268CF
:10185000516880231B010B435360C5E70120E8E773
:10186000FFFFFFF0FF7FFFFFFFF7FFFF0080000299
:10187000F0B585B004000E00029203930A9D412347
:10188000C35C202B00D0AEE02033C35C012B00D121
:10189000ACE040230122C254FFF750F90700802139
:1018A00000901923012209022000FFF700FF002801
:1018B00000D09DE041232122E2540133113AE25449
:1018C00000236364029A6262039A62856363638D94
:1018D0009BB2FF2B1ED9FF23238580235B04228D1F
:1018E000002A1CD02268029909789162626A01324A
:1018F0006262628D013A92B26285228D013A92B2A1
:1019000022850132D2B23E49009131002000FFF71A
:10191000FDFD18E0638D238580239B04DFE7D2B2B1
:101920003749009131002000FFF7F0FD0BE0628D98
:1019300092B222858023D2B2002100919B04310013
:101940002000FFF7E3FD638D9BB2002B34D03A00FB
:1019500029002000FFF77EFE00284BD12368626A31
:1019600012789A62636A01336362638D013B9BB2B2
:101970006385238D013B9BB22385628D92B2002A41
:10198000E1D0002BDFD100972B0000228021200026
:10199000FFF78DFE00282FD1638D9BB2FF2BC6D998
:1019A000FF2323857F3B002200925B04FF3231003E
:1019B0002000FFF7ABFDC6E73A0029002000FFF743
:1019C000BBFE00281AD123682022DA6121684B6807
:1019D0000C4D2B404B604123E25400232232A35490
:1019E000023AA35400E0022005B0F0BD0220FBE75C
:1019F0000120F9E70120F7E70120F5E70120F3E7EF
:101A00000020008000E800FEF0B54123C35C202BDD
:101A100020D12033C35C012B1ED04024012202556B
:101A20004125242343550668336893433360066891
:101A300033680A4F3B4033600668336819433160AE
:101A400001680B6813430B602023435500230355A3
:101A50000020F0BD0220FCE70220FAE7FFEFFFFFC5
:101A6000F0B54123C35C202B1ED12033C35C012B76
:101A70001CD04024012202554125242343550668E9
:101A800033689343336006683368094F3B4009026B
:101A90001943316001680B6813430B6020234355E1
:101AA000002303550020F0BD0220FCE70220FAE7E6
:101AB000FFF0FFFF30B5036A026A0124A24302620D
:101AC000426884697325AC430D682C430225AB43FF
:101AD0008D682B43114DA84205D0114DA84202D06C
:101AE000104DA84205D10825AB43CD682B430425F2
:101AF000AB430A4DA84205D0094DA84202D0094D7A
:101B0000A84205D1084D2A404D692A438D692A43D0
:101B1000426084614A684263036230BD002C014028
:101B20000044014000480140FFFCFFFF70B5036A1C
:101B3000026A184C224002624468C2697325AA43B3
:101B40000E681643144A13408A6812021343134A5C
:101B5000904216D0114A904205D0114A904202D0CC
:101B6000104A904207D1104A22404C692401144384
:101B70008A6915012C434460C6614A68C2630362E6
:101B800070BD0A4A1A40CB681B021343084A13402F
:101B9000E0E7C046FFFEFFFFFFFDFFFF002C014016
:101BA0000044014000480140FFCFFFFFFFF7FFFF67
:101BB000FFFBFFFF30B5036A026A114C224002624C
:101BC0004568C2690F4C22400C68240222430E4C27
:101BD0001C408B681B0323430C4CA04205D00C4CCB
:101BE000A04202D00B4CA04204D10B4C25404C69C2
:101BF000A40125434560C2614A680264036230BDA6
:101C0000FFEFFFFFFF8CFFFFFFDFFFFF002C014016
:101C10000044014000480140FFBFFFFF30B5036AA8
:101C2000046A0125AC4304628469EF35AC431201B8
:101C300022430A24A3430B438261036230BD0000A8
:101C400030B5036A046A1025AC4304628469054D0B
:101C50002C4012032243A024A343090119438261AB
:101C6000016230BDFF0FFFFF8368702293430B4377
:101C700007210B43836070477047000003681D4ACB
:101C8000904202D01C4A904203D1702293434A688A
:101C90001343184A90420BD0174A904208D0174A73
:101CA000904205D0164A904202D0164A904203D183
:101CB000154A1340CA681343802293434A69134369
:101CC00003608B68C3620B6883620A4B984205D03D
:101CD0000B4B984202D00B4B984201D10B69036326
:101CE000012343610269134203D003690122934334
:101CF00003617047002C01400004004000200040B8
:101D00000044014000480140FFFCFFFF70B5041E85
:101D100026D03D23C35C002B1CD03D2502236355F8
:101D2000210001C9FFF7AAFF01234622A354083A64
:101D3000A3540132A3540132A3540132A3540132FB
:101D4000A3540132A3540132A3540132A354635566
:101D5000002070BD3C330022C254FEF76BFEDCE76E
:101D60000120F6E770B5041E26D03D23C35C002B8E
:101D70001CD03D2502236355210001C9FFF77EFFDA
:101D800001234622A354083AA3540132A35401323A
:101D9000A3540132A3540132A3540132A35401329B
:101DA000A3540132A3546355002070BD3C3300227C
:101DB000C254FFF761FFDCE70120F6E730B5036AA4
:101DC000026A1024A243026245688469164A1440DC
:101DD0000A6812021443202293438A6812011343B3
:101DE000124A904216D0114A904205D0104A9042B1
:101DF00002D0104A904207D10F4A2A404D69AD00E7
:101E000015438A6992001543456084614A6882637C
:101E1000036230BD802293431A00CB681B01134339
:101E200040229343DFE7C046FF8CFFFF002C0140B8
:101E30000044014000480140FFF3FFFF70B504007B
:101E40000D003C23C35C012B00D16AE03C2301213F
:101E5000C154082A50D01CD8002A38D0042A16D1E0
:101E600029000068FFF7AAFF2268916980231B01FF
:101E70000B439361226893692B490B40936121685E
:101E80008B692A69120213438B6100201BE0080052
:101E900019E00C2A16D129000068FFF78BFE226892
:101EA000D16980231B010B43D3612268D3691E498A
:101EB0000B40D3612168CB692A6912021343CB61BD
:101EC000002000E001203C230022E25470BD2900E4
:101ED0000068FFF7EFFD2268936908210B439361C7
:101EE0002268936904398B43936122689369296955
:101EF0000B4393610020E6E729000068FFF716FE18
:101F00002268D36908210B43D3612268D36904395D
:101F10008B43D3612268D36929690B43D3610020C5
:101F2000D1E70220D2E7C046FFFBFFFF30B584684F
:101F3000034D2C401B0213430B432343836030BDEE
:101F4000FF00FFFF10B504003C23C35C012B00D150
:101F500078E03C230122C25401330132C2540268AA
:101F600093683948034093600B68602B50D02AD89F
:101F7000402B58D00CD9502B23D1CA68496820680F
:101F8000FFF74CFE50212068FFF76EFE002005E0B1
:101F9000202B0ED009D9302B0BD001203D2301225C
:101FA000E254013B0022E25410BD002B01D0102B63
:101FB00005D119002068FFF757FE0020EEE7012049
:101FC000ECE70120EAE780225201934236D08022DA
:101FD000920193420DD1CB684A6889682068FFF767
:101FE000A5FF226891688023DB010B4393600020EA
:101FF000D4E7702B24D1CB684A6889682068FFF742
:1020000095FF2268936877210B4393600020C5E712
:10201000CA6849682068FFF713FE60212068FFF74F
:1020200023FE0020BAE7CA6849682068FFF7F6FD7A
:1020300040212068FFF718FE0020AFE70020ADE741
:102040000120ABE70220AFE78800FFFF10B51F2398
:10205000194001248C40036AA3430362036A8A4047
:102060001343036210BD000010B5040000292CD1F9
:102070003E23C35C013B5A1E9341DBB2002B58D177
:1020800000293BD13E330222E25401222068FFF7AF
:10209000DDFF2368294A934205D0294A934202D0A2
:1020A000284A934204D1596C802212020A435A648E
:1020B0002368224A934231D0234A93422ED01A6891
:1020C00001210A431A60002034E0042908D00829BD
:1020D0000DD04123C35C013B5A1E9341DBB2CDE7D7
:1020E0003F23C35C013B5A1E9341DBB2C6E740234A
:1020F000C35C013B5A1E9341DBB2BFE7042905D004
:10210000082907D041230222E254BEE73F230222DE
:10211000E254BAE740230222E254B6E79968072264
:102120000A40062A07D01A6801210A431A600020D3
:1021300000E0012010BD0020FCE7C046002C01405B
:1021400000440140004801400004004030B53C23F9
:10215000C35C012B21D03C230122C2540133013244
:10216000C25403685A689C687025AA430D682A43C4
:102170005A6003680A4A934202D00A4A934204D141
:10218000802294434A6814439C603D230122C25438
:10219000013B0022C254002030BD0220FCE7C046B3
:1021A000002C01400004004010B53C23C35C012B0F
:1021B00021D03C2201238354104BCC6823408C68EF
:1021C00023430F4C23404C6823430E4C23400C68A0
:1021D00023430D4C23400C6923430C4C23404C6992
:1021E00023430B4C2340C9690B4301684B64002314
:1021F0008354002010BD0220FCE7C046FFFCFFFF17
:10220000FFFBFFFFFFF7FFFFFFEFFFFFFFDFFFFF1A
:10221000FFBFFFFF0D488546FEF74AFC0C480D49FD
:102220000D4A002302E0D458C4500433C4188C4231
:10223000F9D30A4A0A4C002301E013600432A24297
:10224000FBD300F011F8FEF703F9FEE700100020C1
:10225000000000200C000020A82400080C00002032
:102260004C050020FEE7000070B500260C4D0D4C1B
:10227000641BA410A64209D1002600F02BF80A4DD9
:102280000A4C641BA410A64205D170BDB300EB58E4
:1022900098470136EEE7B300EB5898470136F2E76E
:1022A000A0240008A0240008A0240008A4240008FA
:1022B000002310B59A4200D110BDCC5CC454013348
:1022C000F8E703008218934200D170471970013378
:1022D000F9E70000F8B5C046F8BC08BC9E46704758
:0C22E000F8B5C046F8BC08BC9E4670472C
:1022EC0043504C44204D4F4E00000000323800004B
:1022FC003239000033310000333400003337000032
:10230C0000000000000000005F0000000007000754
:10231C000000147F147F1400242A7F2A1200231338
:10232C00086462003649562050000008070300007C
:10233C00001C224100000041221C00002A1C7F1CB2
:10234C002A0008083E0808000080703000000808C9
:10235C00080808000000606000002010080402005B
:10236C003E5149453E0000427F40000072494949B8
:10237C0046002141494D33001814127F10002745A7
:10238C00454539003C4A49493100412111090700B2
:10239C00364949493600464949291E00003636005F
:1023AC0000000056360000000814224100001414EE
:1023BC0014141400004122140800020159090600EB
:1023CC003E415D594E007C1211127C007F494949F7
:1023DC0036003E41414122007F4141413E007F4950
:1023EC00494941007F09090901003E4141517300EF
:1023FC007F0808087F0000417F4100002040413FDA
:10240C0001007F08142241007F40404040007F02C1
:10241C000C027F007F0408107F003E4141413E00CA
:10242C007F09090906003E4151215E007F091929E7
:10243C00460026494949320003017F0103003F4011
:10244C0040403F001F2040201F003F4038403F00CD
:10245C006314081463000304780403006159494DA4
:10246C004300000000000000000000000102030413
:10247C000607080902030405060708090A0B0C0DD8
:10248C000E0F10100102030405060708090A0B0CB5
:04249C000D0E0F1002
:0424A000E900000847
:0424A400C10000086B
:0C24A80000127A00010000000400000097
:0400000508002215B8
:00000001FF
